{
  "_format": "hh-sol-artifact-1",
  "contractName": "DistributionPool",
  "sourceName": "contracts/distribution/DistributionPool.sol",
  "abi": [
    {
      "inputs": [
        {
          "internalType": "address",
          "name": "owner_",
          "type": "address"
        },
        {
          "internalType": "contract ERC20Taxable",
          "name": "token_",
          "type": "address"
        }
      ],
      "stateMutability": "nonpayable",
      "type": "constructor"
    },
    {
      "inputs": [
        {
          "internalType": "address",
          "name": "element",
          "type": "address"
        }
      ],
      "name": "addHolder",
      "outputs": [],
      "stateMutability": "nonpayable",
      "type": "function"
    },
    {
      "inputs": [],
      "name": "distributeTokens",
      "outputs": [],
      "stateMutability": "nonpayable",
      "type": "function"
    },
    {
      "inputs": [
        {
          "internalType": "address",
          "name": "element",
          "type": "address"
        }
      ],
      "name": "removeHolder",
      "outputs": [],
      "stateMutability": "nonpayable",
      "type": "function"
    }
  ],
  "bytecode": "0x608060405234801561001057600080fd5b50604051610b4b380380610b4b833981810160405281019061003291906100e5565b81600160006101000a81548173ffffffffffffffffffffffffffffffffffffffff021916908373ffffffffffffffffffffffffffffffffffffffff16021790555080600260006101000a81548173ffffffffffffffffffffffffffffffffffffffff021916908373ffffffffffffffffffffffffffffffffffffffff1602179055505050610193565b6000815190506100ca81610165565b92915050565b6000815190506100df8161017c565b92915050565b600080604083850312156100f857600080fd5b6000610106858286016100bb565b9250506020610117858286016100d0565b9150509250929050565b600061012c82610145565b9050919050565b600061013e82610121565b9050919050565b600073ffffffffffffffffffffffffffffffffffffffff82169050919050565b61016e81610121565b811461017957600080fd5b50565b61018581610133565b811461019057600080fd5b50565b6109a9806101a26000396000f3fe608060405234801561001057600080fd5b50600436106100415760003560e01c80638dd42808146100465780639ab1b48414610062578063ac1e17df1461006c575b600080fd5b610060600480360381019061005b919061062a565b610088565b005b61006a6102f4565b005b6100866004803603810190610081919061062a565b610585565b005b600080600090505b60016000805490506100a291906107e2565b81101561015c578273ffffffffffffffffffffffffffffffffffffffff16600082815481106100fa577f4e487b7100000000000000000000000000000000000000000000000000000000600052603260045260246000fd5b9060005260206000200160009054906101000a900473ffffffffffffffffffffffffffffffffffffffff1673ffffffffffffffffffffffffffffffffffffffff1614156101495780915061015c565b80806101549061085e565b915050610090565b5060008190505b600160008054905061017591906107e2565b81101561028257600060018261018b919061075b565b815481106101c2577f4e487b7100000000000000000000000000000000000000000000000000000000600052603260045260246000fd5b9060005260206000200160009054906101000a900473ffffffffffffffffffffffffffffffffffffffff1660008281548110610227577f4e487b7100000000000000000000000000000000000000000000000000000000600052603260045260246000fd5b9060005260206000200160006101000a81548173ffffffffffffffffffffffffffffffffffffffff021916908373ffffffffffffffffffffffffffffffffffffffff160217905550808061027a9061085e565b915050610163565b5060008054806102bb577f4e487b7100000000000000000000000000000000000000000000000000000000600052603160045260246000fd5b6001900381819060005260206000200160006101000a81549073ffffffffffffffffffffffffffffffffffffffff021916905590555050565b600160009054906101000a900473ffffffffffffffffffffffffffffffffffffffff1673ffffffffffffffffffffffffffffffffffffffff163373ffffffffffffffffffffffffffffffffffffffff1614610384576040517f08c379a000000000000000000000000000000000000000000000000000000000815260040161037b9061072a565b60405180910390fd5b6000600260009054906101000a900473ffffffffffffffffffffffffffffffffffffffff1673ffffffffffffffffffffffffffffffffffffffff166370a08231306040518263ffffffff1660e01b81526004016103e191906106e6565b60206040518083038186803b1580156103f957600080fd5b505afa15801561040d573d6000803e3d6000fd5b505050506040513d601f19601f82011682018060405250810190610431919061067c565b90506000808054905090506000818361044a91906107b1565b905060005b8281101561057f57600260009054906101000a900473ffffffffffffffffffffffffffffffffffffffff1673ffffffffffffffffffffffffffffffffffffffff1663a9059cbb600083815481106104cf577f4e487b7100000000000000000000000000000000000000000000000000000000600052603260045260246000fd5b9060005260206000200160009054906101000a900473ffffffffffffffffffffffffffffffffffffffff16846040518363ffffffff1660e01b8152600401610518929190610701565b602060405180830381600087803b15801561053257600080fd5b505af1158015610546573d6000803e3d6000fd5b505050506040513d601f19601f8201168201806040525081019061056a9190610653565b50600181610578919061075b565b905061044f565b50505050565b6000819080600181540180825580915050600190039060005260206000200160009091909190916101000a81548173ffffffffffffffffffffffffffffffffffffffff021916908373ffffffffffffffffffffffffffffffffffffffff16021790555050565b6000813590506105fa8161092e565b92915050565b60008151905061060f81610945565b92915050565b6000815190506106248161095c565b92915050565b60006020828403121561063c57600080fd5b600061064a848285016105eb565b91505092915050565b60006020828403121561066557600080fd5b600061067384828501610600565b91505092915050565b60006020828403121561068e57600080fd5b600061069c84828501610615565b91505092915050565b6106ae81610816565b82525050565b60006106c1600e8361074a565b91506106cc82610905565b602082019050919050565b6106e081610854565b82525050565b60006020820190506106fb60008301846106a5565b92915050565b600060408201905061071660008301856106a5565b61072360208301846106d7565b9392505050565b60006020820190508181036000830152610743816106b4565b9050919050565b600082825260208201905092915050565b600061076682610854565b915061077183610854565b9250827fffffffffffffffffffffffffffffffffffffffffffffffffffffffffffffffff038211156107a6576107a56108a7565b5b828201905092915050565b60006107bc82610854565b91506107c783610854565b9250826107d7576107d66108d6565b5b828204905092915050565b60006107ed82610854565b91506107f883610854565b92508282101561080b5761080a6108a7565b5b828203905092915050565b600061082182610834565b9050919050565b60008115159050919050565b600073ffffffffffffffffffffffffffffffffffffffff82169050919050565b6000819050919050565b600061086982610854565b91507fffffffffffffffffffffffffffffffffffffffffffffffffffffffffffffffff82141561089c5761089b6108a7565b5b600182019050919050565b7f4e487b7100000000000000000000000000000000000000000000000000000000600052601160045260246000fd5b7f4e487b7100000000000000000000000000000000000000000000000000000000600052601260045260246000fd5b7f4e6f7420417574686f7269736564000000000000000000000000000000000000600082015250565b61093781610816565b811461094257600080fd5b50565b61094e81610828565b811461095957600080fd5b50565b61096581610854565b811461097057600080fd5b5056fea2646970667358221220b6b30ad453eadfb7440064f6e989e58d61e1377aa4bebff170fac299dea8bbb164736f6c63430008040033",
  "linkReferences": {},
  "deployedLinkReferences": {}
}