{
  "_format": "hh-sol-artifact-1",
  "contractName": "Token",
  "sourceName": "contracts/token/Token.sol",
  "abi": [
    {
      "inputs": [
        {
          "internalType": "string",
          "name": "name_",
          "type": "string"
        },
        {
          "internalType": "string",
          "name": "symbol_",
          "type": "string"
        },
        {
          "internalType": "uint256",
          "name": "defaultBurnableTax_",
          "type": "uint256"
        },
        {
          "internalType": "uint256",
          "name": "defaultDistributionTax_",
          "type": "uint256"
        },
        {
          "internalType": "uint256",
          "name": "defaultLiquidityTax_",
          "type": "uint256"
        },
        {
          "internalType": "uint256",
          "name": "defaultFundTax_",
          "type": "uint256"
        },
        {
          "internalType": "uint256",
          "name": "initialSupply_",
          "type": "uint256"
        }
      ],
      "stateMutability": "nonpayable",
      "type": "constructor"
    },
    {
      "anonymous": false,
      "inputs": [
        {
          "indexed": true,
          "internalType": "address",
          "name": "owner",
          "type": "address"
        },
        {
          "indexed": true,
          "internalType": "address",
          "name": "spender",
          "type": "address"
        },
        {
          "indexed": false,
          "internalType": "uint256",
          "name": "value",
          "type": "uint256"
        }
      ],
      "name": "Approval",
      "type": "event"
    },
    {
      "anonymous": false,
      "inputs": [
        {
          "indexed": false,
          "internalType": "address",
          "name": "account",
          "type": "address"
        }
      ],
      "name": "Paused",
      "type": "event"
    },
    {
      "anonymous": false,
      "inputs": [
        {
          "indexed": true,
          "internalType": "address",
          "name": "from",
          "type": "address"
        },
        {
          "indexed": true,
          "internalType": "address",
          "name": "to",
          "type": "address"
        },
        {
          "indexed": false,
          "internalType": "uint256",
          "name": "value",
          "type": "uint256"
        }
      ],
      "name": "Transfer",
      "type": "event"
    },
    {
      "anonymous": false,
      "inputs": [
        {
          "indexed": false,
          "internalType": "address",
          "name": "account",
          "type": "address"
        }
      ],
      "name": "Unpaused",
      "type": "event"
    },
    {
      "inputs": [
        {
          "internalType": "address",
          "name": "owner",
          "type": "address"
        },
        {
          "internalType": "address",
          "name": "spender",
          "type": "address"
        }
      ],
      "name": "allowance",
      "outputs": [
        {
          "internalType": "uint256",
          "name": "",
          "type": "uint256"
        }
      ],
      "stateMutability": "view",
      "type": "function"
    },
    {
      "inputs": [
        {
          "internalType": "address",
          "name": "spender",
          "type": "address"
        },
        {
          "internalType": "uint256",
          "name": "amount",
          "type": "uint256"
        }
      ],
      "name": "approve",
      "outputs": [
        {
          "internalType": "bool",
          "name": "",
          "type": "bool"
        }
      ],
      "stateMutability": "nonpayable",
      "type": "function"
    },
    {
      "inputs": [
        {
          "internalType": "address",
          "name": "account",
          "type": "address"
        }
      ],
      "name": "balanceOf",
      "outputs": [
        {
          "internalType": "uint256",
          "name": "",
          "type": "uint256"
        }
      ],
      "stateMutability": "view",
      "type": "function"
    },
    {
      "inputs": [
        {
          "internalType": "address",
          "name": "ad_",
          "type": "address"
        }
      ],
      "name": "blacklist",
      "outputs": [],
      "stateMutability": "nonpayable",
      "type": "function"
    },
    {
      "inputs": [
        {
          "internalType": "address",
          "name": "ad_",
          "type": "address"
        },
        {
          "internalType": "uint256",
          "name": "amount",
          "type": "uint256"
        }
      ],
      "name": "burn",
      "outputs": [],
      "stateMutability": "nonpayable",
      "type": "function"
    },
    {
      "inputs": [],
      "name": "decimals",
      "outputs": [
        {
          "internalType": "uint8",
          "name": "",
          "type": "uint8"
        }
      ],
      "stateMutability": "view",
      "type": "function"
    },
    {
      "inputs": [
        {
          "internalType": "address",
          "name": "spender",
          "type": "address"
        },
        {
          "internalType": "uint256",
          "name": "subtractedValue",
          "type": "uint256"
        }
      ],
      "name": "decreaseAllowance",
      "outputs": [
        {
          "internalType": "bool",
          "name": "",
          "type": "bool"
        }
      ],
      "stateMutability": "nonpayable",
      "type": "function"
    },
    {
      "inputs": [],
      "name": "defaultBurnableTax",
      "outputs": [
        {
          "internalType": "uint256",
          "name": "",
          "type": "uint256"
        }
      ],
      "stateMutability": "view",
      "type": "function"
    },
    {
      "inputs": [],
      "name": "defaultDistributionTax",
      "outputs": [
        {
          "internalType": "uint256",
          "name": "",
          "type": "uint256"
        }
      ],
      "stateMutability": "view",
      "type": "function"
    },
    {
      "inputs": [],
      "name": "defaultFundTax",
      "outputs": [
        {
          "internalType": "uint256",
          "name": "",
          "type": "uint256"
        }
      ],
      "stateMutability": "view",
      "type": "function"
    },
    {
      "inputs": [],
      "name": "defaultLiquidityTax",
      "outputs": [
        {
          "internalType": "uint256",
          "name": "",
          "type": "uint256"
        }
      ],
      "stateMutability": "view",
      "type": "function"
    },
    {
      "inputs": [],
      "name": "distributionPool",
      "outputs": [
        {
          "internalType": "contract DistributionPool",
          "name": "",
          "type": "address"
        }
      ],
      "stateMutability": "view",
      "type": "function"
    },
    {
      "inputs": [],
      "name": "fundPool",
      "outputs": [
        {
          "internalType": "address",
          "name": "",
          "type": "address"
        }
      ],
      "stateMutability": "view",
      "type": "function"
    },
    {
      "inputs": [
        {
          "internalType": "address",
          "name": "ad_",
          "type": "address"
        }
      ],
      "name": "getBurnableTax",
      "outputs": [
        {
          "internalType": "uint256",
          "name": "",
          "type": "uint256"
        }
      ],
      "stateMutability": "view",
      "type": "function"
    },
    {
      "inputs": [
        {
          "internalType": "address",
          "name": "ad_",
          "type": "address"
        }
      ],
      "name": "getDistributionTax",
      "outputs": [
        {
          "internalType": "uint256",
          "name": "",
          "type": "uint256"
        }
      ],
      "stateMutability": "view",
      "type": "function"
    },
    {
      "inputs": [
        {
          "internalType": "address",
          "name": "ad_",
          "type": "address"
        }
      ],
      "name": "getFundTax",
      "outputs": [
        {
          "internalType": "uint256",
          "name": "",
          "type": "uint256"
        }
      ],
      "stateMutability": "view",
      "type": "function"
    },
    {
      "inputs": [
        {
          "internalType": "address",
          "name": "ad_",
          "type": "address"
        }
      ],
      "name": "getLiquidityTax",
      "outputs": [
        {
          "internalType": "uint256",
          "name": "",
          "type": "uint256"
        }
      ],
      "stateMutability": "view",
      "type": "function"
    },
    {
      "inputs": [
        {
          "internalType": "address",
          "name": "spender",
          "type": "address"
        },
        {
          "internalType": "uint256",
          "name": "addedValue",
          "type": "uint256"
        }
      ],
      "name": "increaseAllowance",
      "outputs": [
        {
          "internalType": "bool",
          "name": "",
          "type": "bool"
        }
      ],
      "stateMutability": "nonpayable",
      "type": "function"
    },
    {
      "inputs": [
        {
          "internalType": "address",
          "name": "",
          "type": "address"
        }
      ],
      "name": "individualBurnableTax",
      "outputs": [
        {
          "internalType": "uint256",
          "name": "",
          "type": "uint256"
        }
      ],
      "stateMutability": "view",
      "type": "function"
    },
    {
      "inputs": [
        {
          "internalType": "address",
          "name": "",
          "type": "address"
        }
      ],
      "name": "individualDistributionTax",
      "outputs": [
        {
          "internalType": "uint256",
          "name": "",
          "type": "uint256"
        }
      ],
      "stateMutability": "view",
      "type": "function"
    },
    {
      "inputs": [
        {
          "internalType": "address",
          "name": "",
          "type": "address"
        }
      ],
      "name": "individualFundTax",
      "outputs": [
        {
          "internalType": "uint256",
          "name": "",
          "type": "uint256"
        }
      ],
      "stateMutability": "view",
      "type": "function"
    },
    {
      "inputs": [
        {
          "internalType": "address",
          "name": "",
          "type": "address"
        }
      ],
      "name": "individualLiquidityTax",
      "outputs": [
        {
          "internalType": "uint256",
          "name": "",
          "type": "uint256"
        }
      ],
      "stateMutability": "view",
      "type": "function"
    },
    {
      "inputs": [
        {
          "internalType": "address",
          "name": "ad_",
          "type": "address"
        }
      ],
      "name": "isAddressBlackListed",
      "outputs": [
        {
          "internalType": "bool",
          "name": "",
          "type": "bool"
        }
      ],
      "stateMutability": "view",
      "type": "function"
    },
    {
      "inputs": [],
      "name": "liquidityPool",
      "outputs": [
        {
          "internalType": "address",
          "name": "",
          "type": "address"
        }
      ],
      "stateMutability": "view",
      "type": "function"
    },
    {
      "inputs": [
        {
          "internalType": "address",
          "name": "ad_",
          "type": "address"
        },
        {
          "internalType": "uint256",
          "name": "amount",
          "type": "uint256"
        }
      ],
      "name": "mint",
      "outputs": [],
      "stateMutability": "nonpayable",
      "type": "function"
    },
    {
      "inputs": [],
      "name": "name",
      "outputs": [
        {
          "internalType": "string",
          "name": "",
          "type": "string"
        }
      ],
      "stateMutability": "view",
      "type": "function"
    },
    {
      "inputs": [],
      "name": "paused",
      "outputs": [
        {
          "internalType": "bool",
          "name": "",
          "type": "bool"
        }
      ],
      "stateMutability": "view",
      "type": "function"
    },
    {
      "inputs": [
        {
          "internalType": "uint256",
          "name": "defaultBurnableTax_",
          "type": "uint256"
        }
      ],
      "name": "setDefaultBurnableTax",
      "outputs": [],
      "stateMutability": "nonpayable",
      "type": "function"
    },
    {
      "inputs": [
        {
          "internalType": "uint256",
          "name": "defaultDistributionTax_",
          "type": "uint256"
        }
      ],
      "name": "setDefaultDistributionTax",
      "outputs": [],
      "stateMutability": "nonpayable",
      "type": "function"
    },
    {
      "inputs": [
        {
          "internalType": "uint256",
          "name": "defaultFundTax_",
          "type": "uint256"
        }
      ],
      "name": "setDefaultFundTax",
      "outputs": [],
      "stateMutability": "nonpayable",
      "type": "function"
    },
    {
      "inputs": [
        {
          "internalType": "uint256",
          "name": "defaultLiquidityTax_",
          "type": "uint256"
        }
      ],
      "name": "setDefaultLiquidityTax",
      "outputs": [],
      "stateMutability": "nonpayable",
      "type": "function"
    },
    {
      "inputs": [
        {
          "internalType": "address",
          "name": "ad_",
          "type": "address"
        },
        {
          "internalType": "uint256",
          "name": "individualBurnableTax_",
          "type": "uint256"
        }
      ],
      "name": "setIndividualBurnableTax",
      "outputs": [],
      "stateMutability": "nonpayable",
      "type": "function"
    },
    {
      "inputs": [
        {
          "internalType": "address",
          "name": "ad_",
          "type": "address"
        },
        {
          "internalType": "uint256",
          "name": "individualDistributionTax_",
          "type": "uint256"
        }
      ],
      "name": "setIndividualDistributionTax",
      "outputs": [],
      "stateMutability": "nonpayable",
      "type": "function"
    },
    {
      "inputs": [
        {
          "internalType": "address",
          "name": "ad_",
          "type": "address"
        },
        {
          "internalType": "uint256",
          "name": "individualFundTax_",
          "type": "uint256"
        }
      ],
      "name": "setIndividualFundTax",
      "outputs": [],
      "stateMutability": "nonpayable",
      "type": "function"
    },
    {
      "inputs": [
        {
          "internalType": "address",
          "name": "ad_",
          "type": "address"
        },
        {
          "internalType": "uint256",
          "name": "individualLiquidityTax_",
          "type": "uint256"
        }
      ],
      "name": "setIndividualLiquidityTax",
      "outputs": [],
      "stateMutability": "nonpayable",
      "type": "function"
    },
    {
      "inputs": [],
      "name": "symbol",
      "outputs": [
        {
          "internalType": "string",
          "name": "",
          "type": "string"
        }
      ],
      "stateMutability": "view",
      "type": "function"
    },
    {
      "inputs": [],
      "name": "tgeContract",
      "outputs": [
        {
          "internalType": "contract TokenGeneration",
          "name": "",
          "type": "address"
        }
      ],
      "stateMutability": "view",
      "type": "function"
    },
    {
      "inputs": [],
      "name": "togglePause",
      "outputs": [],
      "stateMutability": "nonpayable",
      "type": "function"
    },
    {
      "inputs": [],
      "name": "totalSupply",
      "outputs": [
        {
          "internalType": "uint256",
          "name": "",
          "type": "uint256"
        }
      ],
      "stateMutability": "view",
      "type": "function"
    },
    {
      "inputs": [
        {
          "internalType": "address",
          "name": "to",
          "type": "address"
        },
        {
          "internalType": "uint256",
          "name": "amount",
          "type": "uint256"
        }
      ],
      "name": "transfer",
      "outputs": [
        {
          "internalType": "bool",
          "name": "",
          "type": "bool"
        }
      ],
      "stateMutability": "nonpayable",
      "type": "function"
    },
    {
      "inputs": [
        {
          "internalType": "address",
          "name": "from",
          "type": "address"
        },
        {
          "internalType": "address",
          "name": "to",
          "type": "address"
        },
        {
          "internalType": "uint256",
          "name": "amount",
          "type": "uint256"
        }
      ],
      "name": "transferFrom",
      "outputs": [
        {
          "internalType": "bool",
          "name": "",
          "type": "bool"
        }
      ],
      "stateMutability": "nonpayable",
      "type": "function"
    },
    {
      "inputs": [
        {
          "internalType": "address",
          "name": "ad_",
          "type": "address"
        }
      ],
      "name": "transferOwnership",
      "outputs": [],
      "stateMutability": "nonpayable",
      "type": "function"
    }
  ],
  "bytecode": "0x60806040523480156200001157600080fd5b506040516200512c3803806200512c8339818101604052810190620000379190620008c1565b86868686868685858160039080519060200190620000579291906200076d565b508060049080519060200190620000709291906200076d565b5050506000600560006101000a81548160ff02191690831515021790555033600560016101000a81548173ffffffffffffffffffffffffffffffffffffffff021916908373ffffffffffffffffffffffffffffffffffffffff1602179055503330604051620000df90620007fe565b620000ec92919062000a65565b604051809103906000f08015801562000109573d6000803e3d6000fd5b50600660006101000a81548173ffffffffffffffffffffffffffffffffffffffff021916908373ffffffffffffffffffffffffffffffffffffffff16021790555083600b8190555082600e81905550816011819055508060148190555050505050505033601660006101000a81548173ffffffffffffffffffffffffffffffffffffffff021916908373ffffffffffffffffffffffffffffffffffffffff160217905550604051620001bb906200080c565b604051809103906000f080158015620001d8573d6000803e3d6000fd5b50601760006101000a81548173ffffffffffffffffffffffffffffffffffffffff021916908373ffffffffffffffffffffffffffffffffffffffff1602179055506200024d601760009054906101000a900473ffffffffffffffffffffffffffffffffffffffff16826200025a60201b60201c565b5050505050505062000e43565b600073ffffffffffffffffffffffffffffffffffffffff168273ffffffffffffffffffffffffffffffffffffffff161415620002cd576040517f08c379a0000000000000000000000000000000000000000000000000000000008152600401620002c49062000ab4565b60405180910390fd5b620002e160008383620003d360201b60201c565b8060026000828254620002f5919062000b85565b92505081905550806000808473ffffffffffffffffffffffffffffffffffffffff1673ffffffffffffffffffffffffffffffffffffffff16815260200190815260200160002060008282546200034c919062000b85565b925050819055508173ffffffffffffffffffffffffffffffffffffffff16600073ffffffffffffffffffffffffffffffffffffffff167fddf252ad1be2c89b69c2b068fc378daa952ba7f163c4a11628f55a4df523b3ef83604051620003b3919062000af8565b60405180910390a3620003cf600083836200040060201b60201c565b5050565b620003e36200060260201b60201c565b620003fb8383836200069460201b620018791760201c565b505050565b600073ffffffffffffffffffffffffffffffffffffffff168373ffffffffffffffffffffffffffffffffffffffff161480620004685750600073ffffffffffffffffffffffffffffffffffffffff168273ffffffffffffffffffffffffffffffffffffffff16145b156200048c57620004868383836200070460201b620018d11760201c565b620005fd565b60006200049f846200070960201b60201c565b14156200053857600660009054906101000a900473ffffffffffffffffffffffffffffffffffffffff1673ffffffffffffffffffffffffffffffffffffffff16638dd42808846040518263ffffffff1660e01b815260040162000503919062000a48565b600060405180830381600087803b1580156200051e57600080fd5b505af115801562000533573d6000803e3d6000fd5b505050505b60006200054b836200070960201b60201c565b1115620005e457600660009054906101000a900473ffffffffffffffffffffffffffffffffffffffff1673ffffffffffffffffffffffffffffffffffffffff1663ac1e17df836040518263ffffffff1660e01b8152600401620005af919062000a48565b600060405180830381600087803b158015620005ca57600080fd5b505af1158015620005df573d6000803e3d6000fd5b505050505b620005fc8383836200070460201b620018d11760201c565b5b505050565b601560003373ffffffffffffffffffffffffffffffffffffffff1673ffffffffffffffffffffffffffffffffffffffff16815260200190815260200160002060009054906101000a900460ff161562000692576040517f08c379a0000000000000000000000000000000000000000000000000000000008152600401620006899062000a92565b60405180910390fd5b565b620006ac8383836200075160201b620018d61760201c565b620006bc6200075660201b60201c565b15620006ff576040517f08c379a0000000000000000000000000000000000000000000000000000000008152600401620006f69062000ad6565b60405180910390fd5b505050565b505050565b60008060008373ffffffffffffffffffffffffffffffffffffffff1673ffffffffffffffffffffffffffffffffffffffff168152602001908152602001600020549050919050565b505050565b6000600560009054906101000a900460ff16905090565b8280546200077b9062000c7e565b90600052602060002090601f0160209004810192826200079f5760008555620007eb565b82601f10620007ba57805160ff1916838001178555620007eb565b82800160010185558215620007eb579182015b82811115620007ea578251825591602001919060010190620007cd565b5b509050620007fa919062000819565b5090565b610b4b806200452e83390190565b60b3806200507983390190565b5b80821115620008345760008160009055506001016200081a565b5090565b60006200084f620008498462000b3e565b62000b15565b9050828152602081018484840111156200086857600080fd5b6200087584828562000c48565b509392505050565b600082601f8301126200088f57600080fd5b8151620008a184826020860162000838565b91505092915050565b600081519050620008bb8162000e29565b92915050565b600080600080600080600060e0888a031215620008dd57600080fd5b600088015167ffffffffffffffff811115620008f857600080fd5b620009068a828b016200087d565b975050602088015167ffffffffffffffff8111156200092457600080fd5b620009328a828b016200087d565b9650506040620009458a828b01620008aa565b9550506060620009588a828b01620008aa565b94505060806200096b8a828b01620008aa565b93505060a06200097e8a828b01620008aa565b92505060c0620009918a828b01620008aa565b91505092959891949750929550565b620009ab8162000be2565b82525050565b620009bc8162000c20565b82525050565b6000620009d160208362000b74565b9150620009de8262000d88565b602082019050919050565b6000620009f8601f8362000b74565b915062000a058262000db1565b602082019050919050565b600062000a1f602a8362000b74565b915062000a2c8262000dda565b604082019050919050565b62000a428162000c16565b82525050565b600060208201905062000a5f6000830184620009a0565b92915050565b600060408201905062000a7c6000830185620009a0565b62000a8b6020830184620009b1565b9392505050565b6000602082019050818103600083015262000aad81620009c2565b9050919050565b6000602082019050818103600083015262000acf81620009e9565b9050919050565b6000602082019050818103600083015262000af18162000a10565b9050919050565b600060208201905062000b0f600083018462000a37565b92915050565b600062000b2162000b34565b905062000b2f828262000cb4565b919050565b6000604051905090565b600067ffffffffffffffff82111562000b5c5762000b5b62000d48565b5b62000b678262000d77565b9050602081019050919050565b600082825260208201905092915050565b600062000b928262000c16565b915062000b9f8362000c16565b9250827fffffffffffffffffffffffffffffffffffffffffffffffffffffffffffffffff0382111562000bd75762000bd662000cea565b5b828201905092915050565b600062000bef8262000bf6565b9050919050565b600073ffffffffffffffffffffffffffffffffffffffff82169050919050565b6000819050919050565b600062000c2d8262000c34565b9050919050565b600062000c418262000bf6565b9050919050565b60005b8381101562000c6857808201518184015260208101905062000c4b565b8381111562000c78576000848401525b50505050565b6000600282049050600182168062000c9757607f821691505b6020821081141562000cae5762000cad62000d19565b5b50919050565b62000cbf8262000d77565b810181811067ffffffffffffffff8211171562000ce15762000ce062000d48565b5b80604052505050565b7f4e487b7100000000000000000000000000000000000000000000000000000000600052601160045260246000fd5b7f4e487b7100000000000000000000000000000000000000000000000000000000600052602260045260246000fd5b7f4e487b7100000000000000000000000000000000000000000000000000000000600052604160045260246000fd5b6000601f19601f8301169050919050565b7f4552433230426c6f636b61626c653a205573657220426c61636b4c6973746564600082015250565b7f45524332303a206d696e7420746f20746865207a65726f206164647265737300600082015250565b7f45524332305061757361626c653a20746f6b656e207472616e7366657220776860008201527f696c652070617573656400000000000000000000000000000000000000000000602082015250565b62000e348162000c16565b811462000e4057600080fd5b50565b6136db8062000e536000396000f3fe608060405234801561001057600080fd5b506004361061025e5760003560e01c806363d095b211610146578063a457c2d7116100c3578063d676444c11610087578063d676444c14610785578063dd62ed3e146107a3578063e2dc54f5146107d3578063f2fde38b146107ef578063f7b0316c1461080b578063f9f92be4146108275761025e565b8063a457c2d7146106e1578063a9059cbb14610711578063beab84b214610741578063c4ae31681461075d578063c5ca7d6d146107675761025e565b806384d68ec91161010a57806384d68ec91461063f5780639434c8141461066f57806395d89b411461068b5780639dc29fac146106a9578063a1475d19146106c55761025e565b806363d095b214610597578063665a11ca146105b557806370a08231146105d357806370f37d27146106035780637d1219a7146106215761025e565b8063313ce567116101df578063464858fd116101a3578063464858fd146104c357806346eed2ef146104f35780634bd093571461050f57806358970bc91461052b5780635c975abb14610549578063629cea81146105675761025e565b8063313ce567146103f957806332255f0f14610417578063395093511461044757806340c10f191461047757806345e1f743146104935761025e565b806318160ddd1161022657806318160ddd1461032f578063184dbe7a1461034d57806323b872dd14610369578063282a1935146103995780632fa605d3146103c95761025e565b806302f37e051461026357806303bdacbd1461028157806306fdde03146102b1578063095ea7b3146102cf5780630c1cac29146102ff575b600080fd5b61026b610843565b6040516102789190612fdc565b60405180910390f35b61029b600480360381019061029691906129f8565b610849565b6040516102a89190612fdc565b60405180910390f35b6102b9610861565b6040516102c69190612dfa565b60405180910390f35b6102e960048036038101906102e49190612aac565b6108f3565b6040516102f69190612da9565b60405180910390f35b610319600480360381019061031491906129f8565b610916565b6040516103269190612fdc565b60405180910390f35b610337610928565b6040516103449190612fdc565b60405180910390f35b61036760048036038101906103629190612ae8565b610932565b005b610383600480360381019061037e9190612a5d565b6109cc565b6040516103909190612da9565b60405180910390f35b6103b360048036038101906103ae91906129f8565b6109e2565b6040516103c09190612fdc565b60405180910390f35b6103e360048036038101906103de91906129f8565b6109fa565b6040516103f09190612fdc565b60405180910390f35b610401610a12565b60405161040e9190612ff7565b60405180910390f35b610431600480360381019061042c91906129f8565b610a1b565b60405161043e9190612fdc565b60405180910390f35b610461600480360381019061045c9190612aac565b610a2d565b60405161046e9190612da9565b60405180910390f35b610491600480360381019061048c9190612aac565b610ad7565b005b6104ad60048036038101906104a891906129f8565b610b75565b6040516104ba9190612da9565b60405180910390f35b6104dd60048036038101906104d891906129f8565b610bcb565b6040516104ea9190612fdc565b60405180910390f35b61050d60048036038101906105089190612aac565b610bdd565b005b61052960048036038101906105249190612ae8565b610d0d565b005b610533610da7565b6040516105409190612fdc565b60405180910390f35b610551610dad565b60405161055e9190612da9565b60405180910390f35b610581600480360381019061057c91906129f8565b610dc4565b60405161058e9190612fdc565b60405180910390f35b61059f610dd6565b6040516105ac9190612ddf565b60405180910390f35b6105bd610dfc565b6040516105ca9190612d8e565b60405180910390f35b6105ed60048036038101906105e891906129f8565b610e22565b6040516105fa9190612fdc565b60405180910390f35b61060b610e6a565b6040516106189190612d8e565b60405180910390f35b610629610e90565b6040516106369190612fdc565b60405180910390f35b610659600480360381019061065491906129f8565b610e96565b6040516106669190612fdc565b60405180910390f35b61068960048036038101906106849190612ae8565b610eae565b005b610693610f48565b6040516106a09190612dfa565b60405180910390f35b6106c360048036038101906106be9190612aac565b610fda565b005b6106df60048036038101906106da9190612aac565b611078565b005b6106fb60048036038101906106f69190612aac565b6111a8565b6040516107089190612da9565b60405180910390f35b61072b60048036038101906107269190612aac565b611292565b6040516107389190612da9565b60405180910390f35b61075b60048036038101906107569190612aac565b6112a7565b005b6107656113d7565b005b61076f61148c565b60405161077c9190612dc4565b60405180910390f35b61078d6114b2565b60405161079a9190612fdc565b60405180910390f35b6107bd60048036038101906107b89190612a21565b6114b8565b6040516107ca9190612fdc565b60405180910390f35b6107ed60048036038101906107e89190612ae8565b61153f565b005b610809600480360381019061080491906129f8565b6115d9565b005b61082560048036038101906108209190612aac565b6116ad565b005b610841600480360381019061083c91906129f8565b6117dd565b005b600e5481565b600f6020528060005260406000206000915090505481565b60606003805461087090613213565b80601f016020809104026020016040519081016040528092919081815260200182805461089c90613213565b80156108e95780601f106108be576101008083540402835291602001916108e9565b820191906000526020600020905b8154815290600101906020018083116108cc57829003601f168201915b5050505050905090565b6000806108fe6118db565b905061090b8185856118e3565b600191505092915050565b600061092182611aae565b9050919050565b6000600254905090565b600560019054906101000a900473ffffffffffffffffffffffffffffffffffffffff1673ffffffffffffffffffffffffffffffffffffffff163373ffffffffffffffffffffffffffffffffffffffff16146109c2576040517f08c379a00000000000000000000000000000000000000000000000000000000081526004016109b990612e9c565b60405180910390fd5b8060148190555050565b60006109d9848484611b54565b90509392505050565b60096020528060005260406000206000915090505481565b60126020528060005260406000206000915090505481565b60006012905090565b6000610a2682611d62565b9050919050565b600080610a386118db565b9050610acc818585600160008673ffffffffffffffffffffffffffffffffffffffff1673ffffffffffffffffffffffffffffffffffffffff16815260200190815260200160002060008973ffffffffffffffffffffffffffffffffffffffff1673ffffffffffffffffffffffffffffffffffffffff16815260200190815260200160002054610ac7919061302e565b6118e3565b600191505092915050565b600560019054906101000a900473ffffffffffffffffffffffffffffffffffffffff1673ffffffffffffffffffffffffffffffffffffffff163373ffffffffffffffffffffffffffffffffffffffff1614610b67576040517f08c379a0000000000000000000000000000000000000000000000000000000008152600401610b5e90612e9c565b60405180910390fd5b610b718282611e08565b5050565b6000601560008373ffffffffffffffffffffffffffffffffffffffff1673ffffffffffffffffffffffffffffffffffffffff16815260200190815260200160002060009054906101000a900460ff169050919050565b6000610bd682611f68565b9050919050565b600560019054906101000a900473ffffffffffffffffffffffffffffffffffffffff1673ffffffffffffffffffffffffffffffffffffffff163373ffffffffffffffffffffffffffffffffffffffff1614610c6d576040517f08c379a0000000000000000000000000000000000000000000000000000000008152600401610c6490612e9c565b60405180910390fd5b6001601060008473ffffffffffffffffffffffffffffffffffffffff1673ffffffffffffffffffffffffffffffffffffffff16815260200190815260200160002060006101000a81548160ff02191690831515021790555080600f60008473ffffffffffffffffffffffffffffffffffffffff1673ffffffffffffffffffffffffffffffffffffffff168152602001908152602001600020819055505050565b600560019054906101000a900473ffffffffffffffffffffffffffffffffffffffff1673ffffffffffffffffffffffffffffffffffffffff163373ffffffffffffffffffffffffffffffffffffffff1614610d9d576040517f08c379a0000000000000000000000000000000000000000000000000000000008152600401610d9490612e9c565b60405180910390fd5b80600b8190555050565b60145481565b6000600560009054906101000a900460ff16905090565b6000610dcf8261200e565b9050919050565b601760009054906101000a900473ffffffffffffffffffffffffffffffffffffffff1681565b600760009054906101000a900473ffffffffffffffffffffffffffffffffffffffff1681565b60008060008373ffffffffffffffffffffffffffffffffffffffff1673ffffffffffffffffffffffffffffffffffffffff168152602001908152602001600020549050919050565b600860009054906101000a900473ffffffffffffffffffffffffffffffffffffffff1681565b600b5481565b600c6020528060005260406000206000915090505481565b600560019054906101000a900473ffffffffffffffffffffffffffffffffffffffff1673ffffffffffffffffffffffffffffffffffffffff163373ffffffffffffffffffffffffffffffffffffffff1614610f3e576040517f08c379a0000000000000000000000000000000000000000000000000000000008152600401610f3590612e9c565b60405180910390fd5b8060118190555050565b606060048054610f5790613213565b80601f0160208091040260200160405190810160405280929190818152602001828054610f8390613213565b8015610fd05780601f10610fa557610100808354040283529160200191610fd0565b820191906000526020600020905b815481529060010190602001808311610fb357829003601f168201915b5050505050905090565b600560019054906101000a900473ffffffffffffffffffffffffffffffffffffffff1673ffffffffffffffffffffffffffffffffffffffff163373ffffffffffffffffffffffffffffffffffffffff161461106a576040517f08c379a000000000000000000000000000000000000000000000000000000000815260040161106190612e9c565b60405180910390fd5b61107482826120b4565b5050565b600560019054906101000a900473ffffffffffffffffffffffffffffffffffffffff1673ffffffffffffffffffffffffffffffffffffffff163373ffffffffffffffffffffffffffffffffffffffff1614611108576040517f08c379a00000000000000000000000000000000000000000000000000000000081526004016110ff90612e9c565b60405180910390fd5b6001601360008473ffffffffffffffffffffffffffffffffffffffff1673ffffffffffffffffffffffffffffffffffffffff16815260200190815260200160002060006101000a81548160ff02191690831515021790555080601260008473ffffffffffffffffffffffffffffffffffffffff1673ffffffffffffffffffffffffffffffffffffffff168152602001908152602001600020819055505050565b6000806111b36118db565b90506000600160008373ffffffffffffffffffffffffffffffffffffffff1673ffffffffffffffffffffffffffffffffffffffff16815260200190815260200160002060008673ffffffffffffffffffffffffffffffffffffffff1673ffffffffffffffffffffffffffffffffffffffff16815260200190815260200160002054905083811015611279576040517f08c379a000000000000000000000000000000000000000000000000000000000815260040161127090612f7c565b60405180910390fd5b61128682868684036118e3565b60019250505092915050565b600061129f338484611b54565b905092915050565b600560019054906101000a900473ffffffffffffffffffffffffffffffffffffffff1673ffffffffffffffffffffffffffffffffffffffff163373ffffffffffffffffffffffffffffffffffffffff1614611337576040517f08c379a000000000000000000000000000000000000000000000000000000000815260040161132e90612e9c565b60405180910390fd5b6001600d60008473ffffffffffffffffffffffffffffffffffffffff1673ffffffffffffffffffffffffffffffffffffffff16815260200190815260200160002060006101000a81548160ff02191690831515021790555080600c60008473ffffffffffffffffffffffffffffffffffffffff1673ffffffffffffffffffffffffffffffffffffffff168152602001908152602001600020819055505050565b600560019054906101000a900473ffffffffffffffffffffffffffffffffffffffff1673ffffffffffffffffffffffffffffffffffffffff163373ffffffffffffffffffffffffffffffffffffffff1614611467576040517f08c379a000000000000000000000000000000000000000000000000000000000815260040161145e90612e9c565b60405180910390fd5b61146f610dad565b156114815761147c61228b565b61148a565b61148961232d565b5b565b600660009054906101000a900473ffffffffffffffffffffffffffffffffffffffff1681565b60115481565b6000600160008473ffffffffffffffffffffffffffffffffffffffff1673ffffffffffffffffffffffffffffffffffffffff16815260200190815260200160002060008373ffffffffffffffffffffffffffffffffffffffff1673ffffffffffffffffffffffffffffffffffffffff16815260200190815260200160002054905092915050565b600560019054906101000a900473ffffffffffffffffffffffffffffffffffffffff1673ffffffffffffffffffffffffffffffffffffffff163373ffffffffffffffffffffffffffffffffffffffff16146115cf576040517f08c379a00000000000000000000000000000000000000000000000000000000081526004016115c690612e9c565b60405180910390fd5b80600e8190555050565b600560019054906101000a900473ffffffffffffffffffffffffffffffffffffffff1673ffffffffffffffffffffffffffffffffffffffff163373ffffffffffffffffffffffffffffffffffffffff1614611669576040517f08c379a000000000000000000000000000000000000000000000000000000000815260040161166090612e9c565b60405180910390fd5b80601660006101000a81548173ffffffffffffffffffffffffffffffffffffffff021916908373ffffffffffffffffffffffffffffffffffffffff16021790555050565b600560019054906101000a900473ffffffffffffffffffffffffffffffffffffffff1673ffffffffffffffffffffffffffffffffffffffff163373ffffffffffffffffffffffffffffffffffffffff161461173d576040517f08c379a000000000000000000000000000000000000000000000000000000000815260040161173490612e9c565b60405180910390fd5b6001600a60008473ffffffffffffffffffffffffffffffffffffffff1673ffffffffffffffffffffffffffffffffffffffff16815260200190815260200160002060006101000a81548160ff02191690831515021790555080600960008473ffffffffffffffffffffffffffffffffffffffff1673ffffffffffffffffffffffffffffffffffffffff168152602001908152602001600020819055505050565b600560019054906101000a900473ffffffffffffffffffffffffffffffffffffffff1673ffffffffffffffffffffffffffffffffffffffff163373ffffffffffffffffffffffffffffffffffffffff161461186d576040517f08c379a000000000000000000000000000000000000000000000000000000000815260040161186490612e9c565b60405180910390fd5b611876816123d0565b50565b6118848383836118d6565b61188c610dad565b156118cc576040517f08c379a00000000000000000000000000000000000000000000000000000000081526004016118c390612fbc565b60405180910390fd5b505050565b505050565b505050565b600033905090565b600073ffffffffffffffffffffffffffffffffffffffff168373ffffffffffffffffffffffffffffffffffffffff161415611953576040517f08c379a000000000000000000000000000000000000000000000000000000000815260040161194a90612f3c565b60405180910390fd5b600073ffffffffffffffffffffffffffffffffffffffff168273ffffffffffffffffffffffffffffffffffffffff1614156119c3576040517f08c379a00000000000000000000000000000000000000000000000000000000081526004016119ba90612e7c565b60405180910390fd5b80600160008573ffffffffffffffffffffffffffffffffffffffff1673ffffffffffffffffffffffffffffffffffffffff16815260200190815260200160002060008473ffffffffffffffffffffffffffffffffffffffff1673ffffffffffffffffffffffffffffffffffffffff168152602001908152602001600020819055508173ffffffffffffffffffffffffffffffffffffffff168373ffffffffffffffffffffffffffffffffffffffff167f8c5be1e5ebec7d5bd14f71427d1e84f3dd0314c0f7b2291e5b200ac8c7c3b92583604051611aa19190612fdc565b60405180910390a3505050565b6000600d60008373ffffffffffffffffffffffffffffffffffffffff1673ffffffffffffffffffffffffffffffffffffffff16815260200190815260200160002060009054906101000a900460ff1615611b4957600c60008373ffffffffffffffffffffffffffffffffffffffff1673ffffffffffffffffffffffffffffffffffffffff168152602001908152602001600020549050611b4f565b600e5490505b919050565b6000600660009054906101000a900473ffffffffffffffffffffffffffffffffffffffff1673ffffffffffffffffffffffffffffffffffffffff168473ffffffffffffffffffffffffffffffffffffffff161415611bc057611bb78484846124db565b60019050611d5b565b6000611bcb85611aae565b90506000611bd886611d62565b90506000611be58761200e565b90506000611bf288611f68565b90506000670de0b6b3a76400008588611c0b91906130b5565b611c159190613084565b90506000670de0b6b3a76400008589611c2e91906130b5565b611c389190613084565b90506000670de0b6b3a7640000858a611c5191906130b5565b611c5b9190613084565b90506000670de0b6b3a7640000858b611c7491906130b5565b611c7e9190613084565b9050611cad8c600660009054906101000a900473ffffffffffffffffffffffffffffffffffffffff16866124db565b611cda8c600660009054906101000a900473ffffffffffffffffffffffffffffffffffffffff16846124db565b611d078c600660009054906101000a900473ffffffffffffffffffffffffffffffffffffffff16836124db565b611d118c846120b4565b6000818385878e611d22919061310f565b611d2c919061310f565b611d36919061310f565b611d40919061310f565b9050611d4d8d8d836124db565b600199505050505050505050505b9392505050565b6000600a60008373ffffffffffffffffffffffffffffffffffffffff1673ffffffffffffffffffffffffffffffffffffffff16815260200190815260200160002060009054906101000a900460ff1615611dfd57600960008373ffffffffffffffffffffffffffffffffffffffff1673ffffffffffffffffffffffffffffffffffffffff168152602001908152602001600020549050611e03565b600b5490505b919050565b600073ffffffffffffffffffffffffffffffffffffffff168273ffffffffffffffffffffffffffffffffffffffff161415611e78576040517f08c379a0000000000000000000000000000000000000000000000000000000008152600401611e6f90612f9c565b60405180910390fd5b611e846000838361275c565b8060026000828254611e96919061302e565b92505081905550806000808473ffffffffffffffffffffffffffffffffffffffff1673ffffffffffffffffffffffffffffffffffffffff1681526020019081526020016000206000828254611eeb919061302e565b925050819055508173ffffffffffffffffffffffffffffffffffffffff16600073ffffffffffffffffffffffffffffffffffffffff167fddf252ad1be2c89b69c2b068fc378daa952ba7f163c4a11628f55a4df523b3ef83604051611f509190612fdc565b60405180910390a3611f6460008383612774565b5050565b6000601360008373ffffffffffffffffffffffffffffffffffffffff1673ffffffffffffffffffffffffffffffffffffffff16815260200190815260200160002060009054906101000a900460ff161561200357601260008373ffffffffffffffffffffffffffffffffffffffff1673ffffffffffffffffffffffffffffffffffffffff168152602001908152602001600020549050612009565b60145490505b919050565b6000601060008373ffffffffffffffffffffffffffffffffffffffff1673ffffffffffffffffffffffffffffffffffffffff16815260200190815260200160002060009054906101000a900460ff16156120a957600f60008373ffffffffffffffffffffffffffffffffffffffff1673ffffffffffffffffffffffffffffffffffffffff1681526020019081526020016000205490506120af565b60115490505b919050565b600073ffffffffffffffffffffffffffffffffffffffff168273ffffffffffffffffffffffffffffffffffffffff161415612124576040517f08c379a000000000000000000000000000000000000000000000000000000000815260040161211b90612efc565b60405180910390fd5b6121308260008361275c565b60008060008473ffffffffffffffffffffffffffffffffffffffff1673ffffffffffffffffffffffffffffffffffffffff168152602001908152602001600020549050818110156121b6576040517f08c379a00000000000000000000000000000000000000000000000000000000081526004016121ad90612e5c565b60405180910390fd5b8181036000808573ffffffffffffffffffffffffffffffffffffffff1673ffffffffffffffffffffffffffffffffffffffff16815260200190815260200160002081905550816002600082825461220d919061310f565b92505081905550600073ffffffffffffffffffffffffffffffffffffffff168373ffffffffffffffffffffffffffffffffffffffff167fddf252ad1be2c89b69c2b068fc378daa952ba7f163c4a11628f55a4df523b3ef846040516122729190612fdc565b60405180910390a361228683600084612774565b505050565b612293610dad565b6122d2576040517f08c379a00000000000000000000000000000000000000000000000000000000081526004016122c990612e3c565b60405180910390fd5b6000600560006101000a81548160ff0219169083151502179055507f5db9ee0a495bf2e6ff9c91a7834c1ba4fdd244a5e8aa4e537bd38aeae4b073aa6123166118db565b6040516123239190612d8e565b60405180910390a1565b612335610dad565b15612375576040517f08c379a000000000000000000000000000000000000000000000000000000000815260040161236c90612edc565b60405180910390fd5b6001600560006101000a81548160ff0219169083151502179055507f62e78cea01bee320cd4e420270b5ea74000d11b0c9f74754ebdbfc544b05a2586123b96118db565b6040516123c69190612d8e565b60405180910390a1565b601560008273ffffffffffffffffffffffffffffffffffffffff1673ffffffffffffffffffffffffffffffffffffffff16815260200190815260200160002060009054906101000a900460ff161561247f576000601560008373ffffffffffffffffffffffffffffffffffffffff1673ffffffffffffffffffffffffffffffffffffffff16815260200190815260200160002060006101000a81548160ff0219169083151502179055506124d8565b6001601560008373ffffffffffffffffffffffffffffffffffffffff1673ffffffffffffffffffffffffffffffffffffffff16815260200190815260200160002060006101000a81548160ff0219169083151502179055505b50565b600073ffffffffffffffffffffffffffffffffffffffff168373ffffffffffffffffffffffffffffffffffffffff16141561254b576040517f08c379a000000000000000000000000000000000000000000000000000000000815260040161254290612f1c565b60405180910390fd5b600073ffffffffffffffffffffffffffffffffffffffff168273ffffffffffffffffffffffffffffffffffffffff1614156125bb576040517f08c379a00000000000000000000000000000000000000000000000000000000081526004016125b290612e1c565b60405180910390fd5b6125c683838361275c565b60008060008573ffffffffffffffffffffffffffffffffffffffff1673ffffffffffffffffffffffffffffffffffffffff1681526020019081526020016000205490508181101561264c576040517f08c379a000000000000000000000000000000000000000000000000000000000815260040161264390612ebc565b60405180910390fd5b8181036000808673ffffffffffffffffffffffffffffffffffffffff1673ffffffffffffffffffffffffffffffffffffffff16815260200190815260200160002081905550816000808573ffffffffffffffffffffffffffffffffffffffff1673ffffffffffffffffffffffffffffffffffffffff16815260200190815260200160002060008282546126df919061302e565b925050819055508273ffffffffffffffffffffffffffffffffffffffff168473ffffffffffffffffffffffffffffffffffffffff167fddf252ad1be2c89b69c2b068fc378daa952ba7f163c4a11628f55a4df523b3ef846040516127439190612fdc565b60405180910390a3612756848484612774565b50505050565b61276461293f565b61276f838383611879565b505050565b600073ffffffffffffffffffffffffffffffffffffffff168373ffffffffffffffffffffffffffffffffffffffff1614806127db5750600073ffffffffffffffffffffffffffffffffffffffff168273ffffffffffffffffffffffffffffffffffffffff16145b156127f0576127eb8383836118d1565b61293a565b60006127fb84610e22565b141561288f57600660009054906101000a900473ffffffffffffffffffffffffffffffffffffffff1673ffffffffffffffffffffffffffffffffffffffff16638dd42808846040518263ffffffff1660e01b815260040161285c9190612d8e565b600060405180830381600087803b15801561287657600080fd5b505af115801561288a573d6000803e3d6000fd5b505050505b600061289a83610e22565b111561292e57600660009054906101000a900473ffffffffffffffffffffffffffffffffffffffff1673ffffffffffffffffffffffffffffffffffffffff1663ac1e17df836040518263ffffffff1660e01b81526004016128fb9190612d8e565b600060405180830381600087803b15801561291557600080fd5b505af1158015612929573d6000803e3d6000fd5b505050505b6129398383836118d1565b5b505050565b601560003373ffffffffffffffffffffffffffffffffffffffff1673ffffffffffffffffffffffffffffffffffffffff16815260200190815260200160002060009054906101000a900460ff16156129cc576040517f08c379a00000000000000000000000000000000000000000000000000000000081526004016129c390612f5c565b60405180910390fd5b565b6000813590506129dd81613677565b92915050565b6000813590506129f28161368e565b92915050565b600060208284031215612a0a57600080fd5b6000612a18848285016129ce565b91505092915050565b60008060408385031215612a3457600080fd5b6000612a42858286016129ce565b9250506020612a53858286016129ce565b9150509250929050565b600080600060608486031215612a7257600080fd5b6000612a80868287016129ce565b9350506020612a91868287016129ce565b9250506040612aa2868287016129e3565b9150509250925092565b60008060408385031215612abf57600080fd5b6000612acd858286016129ce565b9250506020612ade858286016129e3565b9150509250929050565b600060208284031215612afa57600080fd5b6000612b08848285016129e3565b91505092915050565b612b1a81613143565b82525050565b612b2981613155565b82525050565b612b3881613198565b82525050565b612b47816131bc565b82525050565b6000612b5882613012565b612b62818561301d565b9350612b728185602086016131e0565b612b7b816132d2565b840191505092915050565b6000612b9360238361301d565b9150612b9e826132e3565b604082019050919050565b6000612bb660148361301d565b9150612bc182613332565b602082019050919050565b6000612bd960228361301d565b9150612be48261335b565b604082019050919050565b6000612bfc60228361301d565b9150612c07826133aa565b604082019050919050565b6000612c1f600f8361301d565b9150612c2a826133f9565b602082019050919050565b6000612c4260268361301d565b9150612c4d82613422565b604082019050919050565b6000612c6560108361301d565b9150612c7082613471565b602082019050919050565b6000612c8860218361301d565b9150612c938261349a565b604082019050919050565b6000612cab60258361301d565b9150612cb6826134e9565b604082019050919050565b6000612cce60248361301d565b9150612cd982613538565b604082019050919050565b6000612cf160208361301d565b9150612cfc82613587565b602082019050919050565b6000612d1460258361301d565b9150612d1f826135b0565b604082019050919050565b6000612d37601f8361301d565b9150612d42826135ff565b602082019050919050565b6000612d5a602a8361301d565b9150612d6582613628565b604082019050919050565b612d7981613181565b82525050565b612d888161318b565b82525050565b6000602082019050612da36000830184612b11565b92915050565b6000602082019050612dbe6000830184612b20565b92915050565b6000602082019050612dd96000830184612b2f565b92915050565b6000602082019050612df46000830184612b3e565b92915050565b60006020820190508181036000830152612e148184612b4d565b905092915050565b60006020820190508181036000830152612e3581612b86565b9050919050565b60006020820190508181036000830152612e5581612ba9565b9050919050565b60006020820190508181036000830152612e7581612bcc565b9050919050565b60006020820190508181036000830152612e9581612bef565b9050919050565b60006020820190508181036000830152612eb581612c12565b9050919050565b60006020820190508181036000830152612ed581612c35565b9050919050565b60006020820190508181036000830152612ef581612c58565b9050919050565b60006020820190508181036000830152612f1581612c7b565b9050919050565b60006020820190508181036000830152612f3581612c9e565b9050919050565b60006020820190508181036000830152612f5581612cc1565b9050919050565b60006020820190508181036000830152612f7581612ce4565b9050919050565b60006020820190508181036000830152612f9581612d07565b9050919050565b60006020820190508181036000830152612fb581612d2a565b9050919050565b60006020820190508181036000830152612fd581612d4d565b9050919050565b6000602082019050612ff16000830184612d70565b92915050565b600060208201905061300c6000830184612d7f565b92915050565b600081519050919050565b600082825260208201905092915050565b600061303982613181565b915061304483613181565b9250827fffffffffffffffffffffffffffffffffffffffffffffffffffffffffffffffff0382111561307957613078613245565b5b828201905092915050565b600061308f82613181565b915061309a83613181565b9250826130aa576130a9613274565b5b828204905092915050565b60006130c082613181565b91506130cb83613181565b9250817fffffffffffffffffffffffffffffffffffffffffffffffffffffffffffffffff048311821515161561310457613103613245565b5b828202905092915050565b600061311a82613181565b915061312583613181565b92508282101561313857613137613245565b5b828203905092915050565b600061314e82613161565b9050919050565b60008115159050919050565b600073ffffffffffffffffffffffffffffffffffffffff82169050919050565b6000819050919050565b600060ff82169050919050565b60006131a3826131aa565b9050919050565b60006131b582613161565b9050919050565b60006131c7826131ce565b9050919050565b60006131d982613161565b9050919050565b60005b838110156131fe5780820151818401526020810190506131e3565b8381111561320d576000848401525b50505050565b6000600282049050600182168061322b57607f821691505b6020821081141561323f5761323e6132a3565b5b50919050565b7f4e487b7100000000000000000000000000000000000000000000000000000000600052601160045260246000fd5b7f4e487b7100000000000000000000000000000000000000000000000000000000600052601260045260246000fd5b7f4e487b7100000000000000000000000000000000000000000000000000000000600052602260045260246000fd5b6000601f19601f8301169050919050565b7f45524332303a207472616e7366657220746f20746865207a65726f206164647260008201527f6573730000000000000000000000000000000000000000000000000000000000602082015250565b7f5061757361626c653a206e6f7420706175736564000000000000000000000000600082015250565b7f45524332303a206275726e20616d6f756e7420657863656564732062616c616e60008201527f6365000000000000000000000000000000000000000000000000000000000000602082015250565b7f45524332303a20617070726f766520746f20746865207a65726f20616464726560008201527f7373000000000000000000000000000000000000000000000000000000000000602082015250565b7f4e6f7420417574686f7269736564210000000000000000000000000000000000600082015250565b7f45524332303a207472616e7366657220616d6f756e742065786365656473206260008201527f616c616e63650000000000000000000000000000000000000000000000000000602082015250565b7f5061757361626c653a2070617573656400000000000000000000000000000000600082015250565b7f45524332303a206275726e2066726f6d20746865207a65726f2061646472657360008201527f7300000000000000000000000000000000000000000000000000000000000000602082015250565b7f45524332303a207472616e736665722066726f6d20746865207a65726f20616460008201527f6472657373000000000000000000000000000000000000000000000000000000602082015250565b7f45524332303a20617070726f76652066726f6d20746865207a65726f2061646460008201527f7265737300000000000000000000000000000000000000000000000000000000602082015250565b7f4552433230426c6f636b61626c653a205573657220426c61636b4c6973746564600082015250565b7f45524332303a2064656372656173656420616c6c6f77616e63652062656c6f7760008201527f207a65726f000000000000000000000000000000000000000000000000000000602082015250565b7f45524332303a206d696e7420746f20746865207a65726f206164647265737300600082015250565b7f45524332305061757361626c653a20746f6b656e207472616e7366657220776860008201527f696c652070617573656400000000000000000000000000000000000000000000602082015250565b61368081613143565b811461368b57600080fd5b50565b61369781613181565b81146136a257600080fd5b5056fea26469706673582212201361d2f0d057b8eaf6baa751a8d222b77e81a2ddfbbdf064d830d2fb7acde1bf64736f6c63430008040033608060405234801561001057600080fd5b50604051610b4b380380610b4b833981810160405281019061003291906100e5565b81600160006101000a81548173ffffffffffffffffffffffffffffffffffffffff021916908373ffffffffffffffffffffffffffffffffffffffff16021790555080600260006101000a81548173ffffffffffffffffffffffffffffffffffffffff021916908373ffffffffffffffffffffffffffffffffffffffff1602179055505050610193565b6000815190506100ca81610165565b92915050565b6000815190506100df8161017c565b92915050565b600080604083850312156100f857600080fd5b6000610106858286016100bb565b9250506020610117858286016100d0565b9150509250929050565b600061012c82610145565b9050919050565b600061013e82610121565b9050919050565b600073ffffffffffffffffffffffffffffffffffffffff82169050919050565b61016e81610121565b811461017957600080fd5b50565b61018581610133565b811461019057600080fd5b50565b6109a9806101a26000396000f3fe608060405234801561001057600080fd5b50600436106100415760003560e01c80638dd42808146100465780639ab1b48414610062578063ac1e17df1461006c575b600080fd5b610060600480360381019061005b919061062a565b610088565b005b61006a6102f4565b005b6100866004803603810190610081919061062a565b610585565b005b600080600090505b60016000805490506100a291906107e2565b81101561015c578273ffffffffffffffffffffffffffffffffffffffff16600082815481106100fa577f4e487b7100000000000000000000000000000000000000000000000000000000600052603260045260246000fd5b9060005260206000200160009054906101000a900473ffffffffffffffffffffffffffffffffffffffff1673ffffffffffffffffffffffffffffffffffffffff1614156101495780915061015c565b80806101549061085e565b915050610090565b5060008190505b600160008054905061017591906107e2565b81101561028257600060018261018b919061075b565b815481106101c2577f4e487b7100000000000000000000000000000000000000000000000000000000600052603260045260246000fd5b9060005260206000200160009054906101000a900473ffffffffffffffffffffffffffffffffffffffff1660008281548110610227577f4e487b7100000000000000000000000000000000000000000000000000000000600052603260045260246000fd5b9060005260206000200160006101000a81548173ffffffffffffffffffffffffffffffffffffffff021916908373ffffffffffffffffffffffffffffffffffffffff160217905550808061027a9061085e565b915050610163565b5060008054806102bb577f4e487b7100000000000000000000000000000000000000000000000000000000600052603160045260246000fd5b6001900381819060005260206000200160006101000a81549073ffffffffffffffffffffffffffffffffffffffff021916905590555050565b600160009054906101000a900473ffffffffffffffffffffffffffffffffffffffff1673ffffffffffffffffffffffffffffffffffffffff163373ffffffffffffffffffffffffffffffffffffffff1614610384576040517f08c379a000000000000000000000000000000000000000000000000000000000815260040161037b9061072a565b60405180910390fd5b6000600260009054906101000a900473ffffffffffffffffffffffffffffffffffffffff1673ffffffffffffffffffffffffffffffffffffffff166370a08231306040518263ffffffff1660e01b81526004016103e191906106e6565b60206040518083038186803b1580156103f957600080fd5b505afa15801561040d573d6000803e3d6000fd5b505050506040513d601f19601f82011682018060405250810190610431919061067c565b90506000808054905090506000818361044a91906107b1565b905060005b8281101561057f57600260009054906101000a900473ffffffffffffffffffffffffffffffffffffffff1673ffffffffffffffffffffffffffffffffffffffff1663a9059cbb600083815481106104cf577f4e487b7100000000000000000000000000000000000000000000000000000000600052603260045260246000fd5b9060005260206000200160009054906101000a900473ffffffffffffffffffffffffffffffffffffffff16846040518363ffffffff1660e01b8152600401610518929190610701565b602060405180830381600087803b15801561053257600080fd5b505af1158015610546573d6000803e3d6000fd5b505050506040513d601f19601f8201168201806040525081019061056a9190610653565b50600181610578919061075b565b905061044f565b50505050565b6000819080600181540180825580915050600190039060005260206000200160009091909190916101000a81548173ffffffffffffffffffffffffffffffffffffffff021916908373ffffffffffffffffffffffffffffffffffffffff16021790555050565b6000813590506105fa8161092e565b92915050565b60008151905061060f81610945565b92915050565b6000815190506106248161095c565b92915050565b60006020828403121561063c57600080fd5b600061064a848285016105eb565b91505092915050565b60006020828403121561066557600080fd5b600061067384828501610600565b91505092915050565b60006020828403121561068e57600080fd5b600061069c84828501610615565b91505092915050565b6106ae81610816565b82525050565b60006106c1600e8361074a565b91506106cc82610905565b602082019050919050565b6106e081610854565b82525050565b60006020820190506106fb60008301846106a5565b92915050565b600060408201905061071660008301856106a5565b61072360208301846106d7565b9392505050565b60006020820190508181036000830152610743816106b4565b9050919050565b600082825260208201905092915050565b600061076682610854565b915061077183610854565b9250827fffffffffffffffffffffffffffffffffffffffffffffffffffffffffffffffff038211156107a6576107a56108a7565b5b828201905092915050565b60006107bc82610854565b91506107c783610854565b9250826107d7576107d66108d6565b5b828204905092915050565b60006107ed82610854565b91506107f883610854565b92508282101561080b5761080a6108a7565b5b828203905092915050565b600061082182610834565b9050919050565b60008115159050919050565b600073ffffffffffffffffffffffffffffffffffffffff82169050919050565b6000819050919050565b600061086982610854565b91507fffffffffffffffffffffffffffffffffffffffffffffffffffffffffffffffff82141561089c5761089b6108a7565b5b600182019050919050565b7f4e487b7100000000000000000000000000000000000000000000000000000000600052601160045260246000fd5b7f4e487b7100000000000000000000000000000000000000000000000000000000600052601260045260246000fd5b7f4e6f7420417574686f7269736564000000000000000000000000000000000000600082015250565b61093781610816565b811461094257600080fd5b50565b61094e81610828565b811461095957600080fd5b50565b61096581610854565b811461097057600080fd5b5056fea2646970667358221220b6b30ad453eadfb7440064f6e989e58d61e1377aa4bebff170fac299dea8bbb164736f6c634300080400336080604052348015600f57600080fd5b5060016000803373ffffffffffffffffffffffffffffffffffffffff1673ffffffffffffffffffffffffffffffffffffffff16815260200190815260200160002060006101000a81548160ff021916908315150217905550603f8060746000396000f3fe6080604052600080fdfea26469706673582212201cc3362a84e480bfbe2c216a2250308e5da8469d092fc1090a3576b131d4300a64736f6c63430008040033",
  "linkReferences": {},
  "deployedLinkReferences": {}
}